:020000040800F2
:1000000000000220B19A0008019B0008019B000833
:10001000019B0008019B0008019B000800000000F4
:10002000000000000000000000000000019B00082C
:10003000019B000800000000019B0008D582000819
:10004000019B0008019B0008019B0008019B000820
:10005000019B0008019B0008019B0008019B000810
:10006000019B0008019B0008019B0008019B000800
:10007000019B0008019B0008019B0008019B0008F0
:10008000019B0008019B0008019B0008019B0008E0
:10009000019B0008019B0008019B0008019B0008D0
:1000A000019B0008019B0008019B0008019B0008C0
:1000B000019B0008019B0008019B0008019B0008B0
:1000C000019B0008019B0008019B0008019B0008A0
:1000D000019B0008019B0008019B0008019B000890
:1000E000019B0008019B0008019B0008019B000880
:1000F000019B0008019B0008019B0008019B000870
:10010000019B0008019B0008019B0008019B00085F
:10011000019B0008019B0008E5820008019B000884
:10012000019B0008019B0008019B0008019B00083F
:10013000019B0008019B0008019B0008019B00082F
:10014000019B0008019B0008019B0008FD8200083C
:10015000019B0008019B0008019B0008019B00080F
:10016000019B0008019B0008019B0008019B0008FF
:10017000019B0008019B0008019B00080000000093
:08018000019B0008019B00082F
:1001900010B5054C237833B9044B13B10448AFF3C1
:1001A00000800123237010BD3C02002000000000ED
:1001B00008AD000808B5034B1BB103490348AFF372
:1001C000008008BD000000004002002008AD0008CB
:1001D00010F8012B11F8013B012A28BF9A42F7D0F1
:1001E000D01A70470000000000000000000000006E
:1001F00001F0FF01102A2BDB10F0070F08D010F8D8
:10020000013B013A8B422DD010F0070F42B3F6D1DB
:10021000F0B441EA012141EA014122F007047FF0F4
:1002200000070023F0E80256083C85EA010586EA4B
:10023000010685FA47F5A3FA87F586FA47F6A5FA87
:1002400087F68EB9EED1F0BC01F0FF0102F0070293
:1002500032B110F8013B013A83EA010313B1F8D13E
:100260000020704701387047002D06BF354603381F
:10027000073815F0010F07D1013015F4807F02BF58
:10028000013015F4C03F0130F0BC0138704700BFA9
:1002900053B94AB9002908BF00281CBF4FF0FF31ED
:1002A0004FF0FF3000F074B9ADF1080C6DE904CEE9
:1002B00000F006F8DDF804E0DDE9022304B0704741
:1002C0002DE9F047089D04468E46002B4DD18A4209
:1002D000944669D9B2FA82F252B101FA02F3C2F13C
:1002E000200120FA01F10CFA02FC41EA030E9440CD
:1002F0004FEA1C48210CBEFBF8F61FFA8CF708FBEE
:1003000016E341EA034306FB07F199420AD91CEBC5
:10031000030306F1FF3080F01F81994240F21C81F7
:10032000023E63445B1AA4B2B3FBF8F008FB10333F
:1003300044EA034400FB07F7A7420AD91CEB040474
:1003400000F1FF3380F00A81A74240F20781644444
:10035000023840EA0640E41B00261DB1D4400023C9
:10036000C5E900433146BDE8F0878B4209D9002D2D
:1003700000F0EF800026C5E9000130463146BDE8B7
:10038000F087B3FA83F6002E4AD18B4202D3824221
:1003900000F2F980841A61EB030301209E46002DD0
:1003A000E0D0C5E9004EDDE702B9FFDEB2FA82F225
:1003B000002A40F09280A1EB0C014FEA1C471FFA83
:1003C0008CFE0126200CB1FBF7F307FB131140EA6A
:1003D00001410EFB03F0884208D91CEB010103F137
:1003E000FF3802D2884200F2CB804346091AA4B2F9
:1003F000B1FBF7F007FB101144EA01440EFB00FECD
:10040000A64508D91CEB040400F1FF3102D2A64531
:1004100000F2BB800846A4EB0E0440EA03409CE7D0
:10042000C6F12007B34022FA07FC4CEA030C20FA7D
:1004300007F401FA06F31C43F9404FEA1C4900FA9D
:1004400006F3B1FBF9F8200C1FFA8CFE09FB18111A
:1004500040EA014108FB0EF0884202FA06F20BD98D
:100460001CEB010108F1FF3A80F08880884240F2DD
:100470008580A8F102086144091AA4B2B1FBF9F021
:1004800009FB101144EA014100FB0EFE8E4508D91C
:100490001CEB010100F1FF346CD28E456AD90238A1
:1004A000614440EA0840A0FB0294A1EB0E01A14286
:1004B000C846A64656D353D05DB1B3EB080261EBF4
:1004C0000E0101FA07F722FA06F3F1401F43C5E9CE
:1004D000007100263146BDE8F087C2F12003D84004
:1004E0000CFA02FC21FA03F3914001434FEA1C4746
:1004F0001FFA8CFEB3FBF7F007FB10360B0C43EA38
:10050000064300FB0EF69E4204FA02F408D91CEBE7
:10051000030300F1FF382FD29E422DD902386344E5
:100520009B1B89B2B3FBF7F607FB163341EA034185
:1005300006FB0EF38B4208D91CEB010106F1FF38D4
:1005400016D28B4214D9023E6144C91A46EA0046CB
:1005500038E72E46284605E70646E3E61846F8E65D
:100560004B45A9D2B9EB020864EB0C0E0138A3E7A6
:100570004646EAE7204694E74046D1E7D0467BE787
:10058000023B614432E7304609E76444023842E7FF
:10059000704700BF80B500AF0E4B1B680D4A43F497
:1005A000007313600B4B1B680A4A43F480631360AB
:1005B000084B1B68074A43F480731360032000F064
:1005C0004BF9002000F008F807F0CEFB0023184696
:1005D00080BD00BF003C024080B582B000AF7860B3
:1005E000124B1A68124B1B7819464FF47A73B3FBFF
:1005F000F1F3B2FBF3F3184600F063F90346002B66
:1006000001D001230EE07B680F2B0AD80022796805
:100610004FF0FF3000F02BF9064A7B68136000238F
:1006200000E0012318460837BD4680BD18010020B0
:10063000040000200000002080B400AF064B1B78AF
:100640001A46064B1B681344044A136000BFBD469C
:100650005DF8047B704700BF0400002058020020B2
:1006600080B400AF034B1B681846BD465DF8047BA1
:10067000704700BF5802002080B584B000AF78609A
:10068000FFF7EEFFB8607B68FB60FB68B3F1FF3FEC
:1006900005D00A4B1B781A46FB681344FB6000BF69
:1006A000FFF7DEFF0246BB68D31AFA689A42F7D812
:1006B00000BF00BF1037BD4680BD00BF0400002052
:1006C00080B485B000AF78607B6803F00703FB60FF
:1006D0000C4BDB68BB60BA684FF6FF031340BB608E
:1006E000FB681A02BB68134343F0BF6343F4003353
:1006F000BB60044ABB68D36000BF1437BD465DF8D9
:10070000047B704700ED00E080B400AF044BDB6871
:100710001B0A03F007031846BD465DF8047B7047CB
:1007200000ED00E080B483B000AF0346FB71FB79BD
:1007300003F01F02074997F907305B09012000FA0F
:1007400002F241F8232000BF0C37BD465DF8047B60
:10075000704700BF00E100E080B483B000AF034603
:100760003960FB7197F90730002B0BDA3B68DAB27E
:100770000C49FB7903F00F03043B1201D2B20B4486
:100780001A7609E03B68DAB2074997F90730120197
:10079000D2B20B4483F8002300BF0C37BD465DF88E
:1007A000047B704700ED00E000E100E080B489B018
:1007B00000AFF860B9607A60FB6803F00703FB6183
:1007C000FB69C3F10703042B28BF0423BB61FB694A
:1007D0000433062B02D9FB69033B00E000237B6155
:1007E0004FF0FF32BB6902FA03F3DA43BB681A40E9
:1007F0007B699A404FF0FF317B6901FA03F3D943DB
:100800007B680B40134318462437BD465DF8047BD4
:100810007047000080B582B000AF78607B68013B14
:10082000B3F1807F01D301230FE00A4A7B68013BCB
:1008300053600F214FF0FF30FFF78EFF054B002272
:100840009A60044B07221A60002318460837BD46F9
:1008500080BD00BF10E000E080B582B000AF7860DE
:100860007868FFF72DFF00BF0837BD4680BD80B513
:1008700086B000AF0346B9607A60FB7300237B61EA
:10088000FFF742FF78617A68B9687869FFF78EFFF1
:10089000024697F90F3011461846FFF75DFF00BF7B
:1008A0001837BD4680BD80B582B000AF0346FB71EE
:1008B00097F907301846FFF735FF00BF0837BD46E8
:1008C00080BD80B582B000AF78607868FFF7A2FF86
:1008D000034618460837BD4680BD000080B483B08B
:1008E00000AF78607B68042B06D1094B1B68084A6F
:1008F00043F00403136005E0054B1B68044A23F032
:100900000403136000BF0C37BD465DF8047B7047DD
:1009100010E000E080B500AF00F002F800BF80BD3D
:1009200080B400AF00BFBD465DF8047B7047000097
:1009300080B489B000AF7860396000237B61002308
:100940003B610023BB610023FB616BE10122FB697A
:1009500002FA03F37B613B681B687A6913403B61D1
:100960003A697B699A4240F05A813B685B68022B86
:1009700003D03B685B68122B23D1FB69DA087B68E4
:10098000083253F82230BB61FB6903F007039B0078
:100990000F2202FA03F3DB43BA691340BB613B68E1
:1009A0001A69FB6903F007039B0002FA03F3BA69B3
:1009B0001343BB61FB69DA087B680832B96943F805
:1009C00022107B681B68BB61FB695B00032202FA93
:1009D00003F3DB43BA691340BB613B685B6803F018
:1009E0000302FB695B0002FA03F3BA691343BB61BC
:1009F0007B68BA691A603B685B68012B0BD03B6867
:100A00005B68022B07D03B685B68112B03D03B6807
:100A10005B68122B30D17B689B68BB61FB695B0014
:100A2000032202FA03F3DB43BA691340BB613B685C
:100A3000DA68FB695B0002FA03F3BA691343BB612E
:100A40007B68BA699A607B685B68BB610122FB695D
:100A500002FA03F3DB43BA691340BB613B685B688E
:100A60001B0903F00102FB6902FA03F3BA6913439D
:100A7000BB617B68BA695A607B68DB68BB61FB69F4
:100A80005B00032202FA03F3DB43BA691340BB6144
:100A90003B689A68FB695B0002FA03F3BA69134387
:100AA000BB617B68BA69DA603B685B6803F08053BE
:100AB000002B00F0B4800023FB60604B5B6C5F4A4E
:100AC00043F4804353645D4B5B6C03F48043FB60F1
:100AD000FB685B4AFB699B08023352F82330BB6119
:100AE000FB6903F003039B000F2202FA03F3DB43CD
:100AF000BA691340BB617B68524A93422BD07B6832
:100B0000514A934225D07B68504A93421FD07B685C
:100B10004F4A934219D07B684E4A934213D07B6868
:100B20004D4A93420DD07B684C4A934207D07B6874
:100B30004B4A934201D107230EE008230CE0062321
:100B40000AE0052308E0042306E0032304E002236F
:100B500002E0012300E00023FA6902F003029200A0
:100B60009340BA691343BB613549FB699B08023363
:100B7000BA6941F823203B4B1B68BB613B69DB43EF
:100B8000BA691340BB613B685B6803F48033002B98
:100B900003D0BA693B691343BB61324ABB69136036
:100BA000304B5B68BB613B69DB43BA691340BB6197
:100BB0003B685B6803F40033002B03D0BA693B69E0
:100BC0001343BB61274ABB695360264B9B68BB61DB
:100BD0003B69DB43BA691340BB613B685B6803F464
:100BE0008013002B03D0BA693B691343BB611D4AD4
:100BF000BB6993601B4BDB68BB613B69DB43BA6934
:100C00001340BB613B685B6803F40013002B03D007
:100C1000BA693B691343BB61124ABB69D360FB6984
:100C20000133FB61FB690F2B7FF690AE00BF00BF65
:100C30002437BD465DF8047B704700BF0038024092
:100C40000038014000000240000402400008024059
:100C5000000C024000100240001402400018024044
:100C6000001C0240003C014080B483B000AF7860BB
:100C70000B467B8013467B707B78002B03D07A88F1
:100C80007B689A6103E07B881A047B689A6100BFE5
:100C90000C37BD465DF8047B7047000080B584B01A
:100CA00000AF78600023FB600023BB607B68002BF3
:100CB00001D10123C9E07B6893F83D30DBB2002B02
:100CC00006D17B68002283F83C20786807F09EF804
:100CD0007B68242283F83D207B681B681A687B6848
:100CE0001B6822F001021A6002F076FAB860BB6855
:100CF000584AA2FB03239B0CFB607B681B68FA68C5
:100D00005A607B685B68544A934202D8FB6801339F
:100D100009E0FB684FF4967202FB03F34F4AA2FB13
:100D200003239B0901337A68126813627B685B684E
:100D3000494A934213D87B685B685B00BA68B2FB90
:100D4000F3F240F6FC731340002B06D07B685B681F
:100D50005B00BA68B2FBF3F345E0042343E07B6831
:100D60009B68002B0FD17B685A6813465B001344C5
:100D7000BA68B2FBF3F3C3F30B03002B0CBF0123E0
:100D80000023DBB210E07B685A6813469B001344D3
:100D90009A001344BA68B2FBF3F3C3F30B03002BBE
:100DA0000CBF01230023DBB2002B01D001231AE08A
:100DB0007B689B68002B0AD17B685A6813465B00EE
:100DC0001344BA68B2FBF3F343F400430BE07B68CF
:100DD0005A6813469B0013449A001344BA68B2FB46
:100DE000F3F343F440437A681268D3617B68D969AE
:100DF0007B681A6A7B681B680A431A607B681969FA
:100E00007B68DA687B681B680A439A607B6859696B
:100E10007B689A697B681B680A43DA607B681B6899
:100E20001A687B681B6842F001021A607B68002226
:100E30001A647B68202283F83D207B6800221A63B5
:100E40007B68002283F83E20002318461037BD46F9
:100E500080BD00BF83DE1B43A0860100D34D62101E
:100E600080B588B000AF78600023FB600223FB618F
:100E70000023BB6110237B6100233B610023BB6027
:100E80007B68002B01D101232CE17B68022283F8CF
:100E900041207B68954A5A63786806F0E9FF7B68D1
:100EA0001B68DB697A68126823F47B6323F00F0305
:100EB000D3617B681B6802221A627B681B68DB694E
:100EC000FB607B685B69022B61D07B68DB68002B71
:100ED00002D020237B6101E010237B617B689B684B
:100EE000202B02D87B695B007B61012002F06AFA4B
:100EF000B8607B681B69B3F5007F25D17B68DB6830
:100F0000002B10D07B699B00BA68B2FBF3F213464A
:100F10009B0013445B001A467B685B69B2FBF3F3EA
:100F200005333B611FE07B69DB00BA68B2FBF3F27B
:100F300013469B0013445B001A467B685B69B2FB57
:100F4000F3F305333B610EE0BA687B69B2FBF3F261
:100F500013469B0013445B001A467B685B69B2FB37
:100F6000F3F305333B613B69614AA2FB0323DB08D2
:100F70003B613B699BB203F00103BB613A69BB690A
:100F8000D31A5B089BB2FB61BB691B02BB61FB69A7
:100F9000012B02D9FB69FF2B0ED90223FB61002331
:100FA000BB617B685B6C43F010027B685A647868B5
:100FB00000F0BAF8012395E07B681A69BB6942EA40
:100FC00003017B681B68FA690A431A627B685B68E5
:100FD0009AB27B689B6899B27B68DB6898B27B6841
:100FE0009B699BB203439BB20B439BB213439BB2DF
:100FF00043F400639BB21A46FB681343FB607B68B3
:101000001B68FA68DA617B681B6A012B62D17B6816
:10101000384A5A637B681B68374A934201D1374B81
:1010200001E04FF04023DB697A68126832498A4256
:1010300001D1324A01E04FF0402223F47B6323F0D8
:101040000F03D3617B681B682B4A934201D12B4B62
:1010500001E04FF0402302221A627B681B68264A97
:10106000934201D1254B01E04FF04023DB69FB6047
:101070007B685B68B3F5007F03D07B685B68002BFF
:1010800003D14FF480733B6101E000233B613B6976
:101090009AB27B689B6899B27B68DB6898B27B6880
:1010A0009B699BB203439BB20B439BB213439BB21E
:1010B00043F400639BB21A46FB681343FB607B68F2
:1010C0001B680D4A934201D10C4B01E04FF04023C5
:1010D000FA68DA617B6800225A647B68012283F82F
:1010E0004120002318462037BD4680BDF31100087B
:1010F000CDCCCCCC0D1300080038004000340040AB
:1011000080B483B000AF786000BF0C37BD465DF897
:10111000047B704780B483B000AF786000BF0C37A9
:10112000BD465DF8047B704780B483B000AF786043
:1011300000BF0C37BD465DF8047B704780B582B0B8
:1011400000AF78607B685B6A991C7A6851621A8884
:101150007B681B68DA607B685B8D9BB2013B9AB24F
:101160007B685A857B685B8D9BB2002B0FD17B68B7
:101170001B6859687B681A684FF65F730B405360B1
:101180007B68012283F841207868FFF7B9FF00BF30
:101190000837BD4680BD80B582B000AF78607B68FF
:1011A0001B68D8687B68DB6A991C7A68D16282B256
:1011B0001A807B685B8E9BB2013B9AB27B685A8631
:1011C0007B685B8E9BB2002B0FD17B681B685968D4
:1011D0007B681A684FF69F730B4053607B6801224F
:1011E00083F841207868FFF795FF00BF0837BD46B8
:1011F00080BD80B586B000AF78607B681B689B6857
:101200007B617B6893F84130DBB2042B3BD17B6977
:1012100003F00103012B09D17B681B685B6803F0B5
:101220004003402B02D17868FFF7B5FF7B6903F0DC
:101230004003402B27D17B681B685B6803F02003C9
:10124000202B20D17B681B6859687B681A684FF691
:101250009F730B40536000233B617B681B68DB6816
:101260003B617B681B689B683B613B697B68012233
:1012700083F841207B685B6C43F002027B685A6410
:101280007868FFF751FF7B6893F84130DBB2032B9E
:1012900037D17B6903F00203022B09D17B681B68FD
:1012A0005B6803F08003802B02D17868FFF746FF6C
:1012B0007B6903F00803082B23D17B681B685B68FC
:1012C00003F02003202B1CD17B681B6859687B68C6
:1012D0001A684FF65F730B4053600023FB607B6816
:1012E0001B689B68FB60FB687B68012283F84120D8
:1012F0007B685B6C43F004027B685A647868FFF794
:1013000013FF00BF1837BD4680BD000080B586B012
:1013100000AF78607B681B689B687B617B681B689B
:101320008C4A934201D18C4B01E04FF040239B68E3
:101330003B617B681B68DB6903F44073B3F5007F96
:1013400007D07B681B68DB6903F44073002B40F017
:10135000B3807B6903F00203022B0AD17B681B6810
:101360005B6803F08003802B03D10021786800F0D4
:101370005BF93B6903F00103012B11D17B681B680A
:10138000744A934201D1744B01E04FF040235B68F3
:1013900003F04003402B03D10121786800F0C0F92D
:1013A0003B6903F04003402B44D17B681B68694ACA
:1013B000934201D1684B01E04FF040235B6803F09A
:1013C0002003202B36D17B681B68624A934201D1EF
:1013D000614B01E04FF040235A687B681B685D4910
:1013E0008B4201D15C4B01E04FF0402322F06002C0
:1013F0005A607B681B6859687B681A684FF65F7390
:101400000B4053600023FB607B681B68DB68FB605C
:101410007B681B689B68FB60FB687B68012283F824
:1014200041207B685B6C43F002027B685A647868F9
:10143000FFF77AFE7B6903F00803082B40F0E08099
:101440007B681B685B6803F02003202B40F0D8808A
:101450007B681B6859687B681A684FF65F730B409E
:1014600053607B681B683B4A934201D13A4B01E0D1
:101470004FF040235A687B681B6836498B4201D184
:10148000354B01E04FF0402322F060025A60002308
:10149000BB607B681B689B68BB60BB687B68012284
:1014A00083F841207B685B6C43F004027B685A64DC
:1014B0007868FFF739FEA3E03B6903F00203022BD3
:1014C00011D17B681B68234A934201D1224B01E072
:1014D0004FF040235B6803F08003802B03D1012190
:1014E000786800F0A1F87B6903F00103012B0AD1B1
:1014F0007B681B685B6803F04003402B03D100212D
:10150000786800F00DF97B6903F04003402B37D178
:101510007B681B685B6803F02003202B30D17B685D
:101520001B6859687B681A684FF69F730B405360BD
:101530007B681B68074A934201D1074B01E04FF0DB
:1015400040235A687B681B6802498B4206D1024BD4
:1015500006E000BF00380040003400404FF0402358
:1015600022F0A0025A607B68012283F841207B6848
:101570005B6C43F002027B685A647868FFF7D4FD25
:101580003B6903F00803082B3BD17B681B681F4AAB
:10159000934201D11E4B01E04FF040235B6803F002
:1015A0002003202B2DD17B681B68184A934201D160
:1015B000174B01E04FF040235A687B681B681349C2
:1015C0008B4201D1124B01E04FF0402322F0A002E8
:1015D0005A607B681B6859687B681A684FF69F736E
:1015E0000B4053607B68012283F841207B685B6C71
:1015F00043F004027B685A647868FFF795FD00E0C9
:1016000000BF00BF1837BD4680BD00BF0038004096
:101610000034004080B483B000AF786000BF0C3766
:10162000BD465DF8047B704780B582B000AF78603E
:101630000B46FB70FB78002B2AD17B685B6A991CF8
:101640007A6851621A887B681B68DA607B685B8DF8
:101650009BB2013B9AB27B685A857B685B8D9BB2DB
:10166000002B54D17B681B6859687B681A684FF659
:101670005F730B4053607B685B8E9BB2002B46D13F
:101680007B68012283F841207868FFF7C3FF3EE0C2
:101690007B685B6A991C7A68516219887B681B6851
:1016A0001D4A934201D11D4B01E04FF040230A46F1
:1016B000DA607B685B8D9BB2013B9AB27B685A858E
:1016C0007B685B8D9BB2002B21D17B681B68124A23
:1016D000934201D1114B01E04FF040235A687B68DF
:1016E0001B680D498B4201D10C4B01E04FF04023A8
:1016F00022F0A0025A607B685B8E9BB2002B06D161
:101700007B68012283F841207868FFF783FF00BFE0
:101710000837BD4680BD00BF00380040003400409F
:1017200080B582B000AF78600B46FB70FB78002B71
:101730002BD17B681B68D8687B68DB6A991C7A6848
:10174000D16282B21A807B685B8E9BB2013B9AB2F7
:101750007B685A867B685B8E9BB2002B54D17B687A
:101760001B6859687B681A684FF69F730B4053607B
:101770007B685B8D9BB2002B46D17B68012283F88E
:1017800041207868FFF746FF3EE07B681B68204AEF
:10179000934201D11F4B01E04FF04023D8687B6892
:1017A000DB6A991C7A68D16282B21A807B685B8E90
:1017B0009BB2013B9AB27B685A867B685B8E9BB278
:1017C000002B21D17B681B68114A934201D1114B38
:1017D00001E04FF040235A687B681B680C498B423C
:1017E00001D10C4B01E04FF0402322F060025A601F
:1017F0007B685B8D9BB2002B06D17B68012283F84E
:1018000041207868FFF706FF00BF0837BD4680BD5E
:101810000038004000340040F0B58FB00AAF786067
:101820000023FB607B68002B01D10123F7E07B687C
:10183000032283F8B923786807F0FCFC7B681B68F7
:10184000184602F07CFE7B681B683B607E686D4634
:1018500006F110040FCC0FC50FCC0FC594E80300A0
:1018600085E80300331D0ECB386802F006FE7B6866
:101870001B680021184602F073FE0023FB604CE059
:101880007968FA681346DB009B1A9B000B443933D6
:1018900001221A70FB68D8B27968FA681346DB0037
:1018A0009B1A9B000B44383302461A70FB6898B2AF
:1018B0007968FA681346DB009B1A9B000B443E33A1
:1018C00002461A807968FA681346DB009B1A9B006F
:1018D0000B443B3300221A707968FA681346DB0028
:1018E0009B1A9B000B44403300221A607968FA6807
:1018F0001346DB009B1A9B000B44443300221A6002
:101900007968FA681346DB009B1A9B000B444C3342
:1019100000221A60FB680133FB60FB680E2BAFD915
:101920000023FB605AE07968FA681346DB009B1AD3
:101930009B000B4403F2F91300221A70FB68D8B223
:101940007968FA681346DB009B1A9B000B4403F589
:10195000FC7302461A70FB6898B27968FA681346FD
:10196000DB009B1A9B000B443E3302461A807968C9
:10197000FA681346DB009B1A9B000B4403F2FB132F
:1019800000221A707968FA681346DB009B1A9B00E4
:101990000B4403F5007300221A607968FA68134655
:1019A000DB009B1A9B000B4403F5017300221A60B5
:1019B0007968FA681346DB009B1A9B000B4403F519
:1019C000037300221A607B681A68FB6840339B002F
:1019D000134400225A60FB680133FB60FB680E2B46
:1019E000A1D97B681B683B607E686D4606F11004D8
:1019F0000FCC0FC50FCC0FC594E8030085E803009A
:101A0000331D0ECB386802F0D3FD7B68012283F8CA
:101A1000B9237B681B68184603F0BDFD00231846F8
:101A20001437BD46F0BD80B582B000AF78607B68EA
:101A300093F8B833012B01D1022312E07B68012215
:101A400083F8B8237B681B68184603F08EFD7B681B
:101A50001B68184602F062FD7B68002283F8B823F9
:101A6000002318460837BD4680BD000080B58CB005
:101A700000AF78607B681B683B620023FB62002339
:101A8000BB620023FB6100237B620023BB61002358
:101A90007B617C4B3B617B681B68184603F01CFE36
:101AA0000346002B40F060847B681B68184603F0F7
:101AB00088FD0346002B00F056847B681B6818469F
:101AC00003F07FFD034603F00203022B07D17B687E
:101AD0001B685A697B681B6802F002025A617B68C6
:101AE0001B68184603F06DFD034603F40023B3F5AD
:101AF000002F40F0B28000237B627B681B68184691
:101B000003F074FDB862A4E0BB6A03F00103002B8C
:101B100000F099807B681B687A6AD2B21146184639
:101B200003F094FDF861FB6903F00103002B6BD017
:101B30007B6A5A013B6A134403F530631A4601235A
:101B400093607B681B69012B3CD179687A6A1346E4
:101B5000DB009B1A9B000B4403F500731A687B6A39
:101B600059013B6A0B4403F530631B69C3F312034D
:101B7000D11A78687A6A1346DB009B1A9B000344EB
:101B800003F50473196079687A6A1346DB009B1ABF
:101B90009B000B4403F50173196878687A6A134651
:101BA000DB009B1A9B00034403F500731B68194478
:101BB00078687A6A1346DB009B1A9B00034403F59E
:101BC000017319607B6ADBB21946786807F090FBF5
:101BD0007B681B69012B17D17B6A002B14D17968B4
:101BE0007A6A1346DB009B1A9B000B4403F50373D0
:101BF0001B68002B08D17B6818687B6803F56F733E
:101C00001A46012103F0A9FDFB6903F00803002B2C
:101C10000BD0786807F05AFB7B6A5A013B6A134481
:101C200003F530631A4608239360FB6903F0100341
:101C3000002B08D07B6A5A013B6A134403F53063DA
:101C40001A46102393607B6A01337B62BB6A5B0890
:101C5000BB62BB6A002B7FF457AF7B681B681846DA
:101C600003F0AFFC034603F48023B3F5802F40F06C
:101C7000C4807B681B68184603F0D0FCB862002360
:101C80007B62B6E00095BA0ABB6A03F00103002B41
:101C900000F0A9807B681B687A6AD2B211461846A8
:101CA00003F0F0FCF861FB6903F00103002B59D04D
:101CB00001227B6A02FA03F3BB613B6A03F500630E
:101CC0005A6BBB69DB43396A01F5006113404B6312
:101CD0007B6A5A013B6A134403F510631A460123D9
:101CE00093607B681B69012B1BD179687A6A134664
:101CF000DB009B1A9B000B444433196878687A6AAE
:101D00001346DB009B1A9B00034440331B681944B5
:101D100078687A6A1346DB009B1A9B0003444433BD
:101D200019607B6ADBB21946786807F0FCFA7B68B9
:101D30001B69012B16D17B6A002B13D179687A6A53
:101D40001346DB009B1A9B000B444C331B68002B93
:101D500008D17B6818687B6803F56F731A46012108
:101D600003F0FBFCFB6903F00803002B08D07B6A3F
:101D70005A013B6A134403F510631A460823936023
:101D8000FB6903F01003002B08D07B6A5A013B6A01
:101D9000134403F510631A4610239360FB6903F0A4
:101DA0004003002B08D07B6A5A013B6A134403F5B9
:101DB00010631A4640239360FB6903F00203002B73
:101DC00008D07B6A5A013B6A134403F510631A4634
:101DD00002239360FB6903F08003002B03D0796A30
:101DE000786800F0EAFC7B6A01337B62BB6A5B08BF
:101DF000BB62BB6A002B7FF447AF7B681B68184649
:101E000003F0DFFB034603F00043B3F1004F14D1AE
:101E10003B6A03F500635B683A6A02F5006223F0EF
:101E200001035360786807F0F5FA7B681B685A690C
:101E30007B681B6802F000425A617B681B68184689
:101E400003F0BFFB034603F40063B3F5006F12D148
:101E50003B6A03F500639B6803F00103012B02D189
:101E6000786807F0B1FA7B681B685A697B681B6861
:101E700002F400625A617B681B68184603F0A1FBFC
:101E8000034603F48053B3F5805F40F08A803B6AD9
:101E900003F500635B683A6A02F5006223F0010310
:101EA00053607B681B681021184602F0B3FC0023C6
:101EB000FB6214E0FB6A5A013B6A134403F51063AA
:101EC0001A46FF239360FB6A5A013B6A134403F5E9
:101ED00030631A46FF239360FB6A0133FB627B6821
:101EE0005B68FA6A9A42E5D33B6A03F500631A46D7
:101EF0004FF0FF3393613B6A03F50063DB693A6A95
:101F000002F5006243F00113D3617B681B6B002B69
:101F100016D03B6A03F50063D3F884303A6A02F5C1
:101F2000006243F00B03C2F884303B6A03F50063A0
:101F30005B6C3A6A02F5006243F00B03536413E0F2
:101F40003B6A03F500635B693A6A02F5006243F09D
:101F50000B0353613B6A03F500631B693A6A02F5A0
:101F6000006243F00B0313613B6A03F500631B68D7
:101F70003A6A02F5006223F4FE6313607B68186816
:101F80007B681B69D9B27B6803F56F731A4603F04F
:101F9000E4FB7B681B685A697B681B6802F480520B
:101FA0005A617B681B68184603F00BFB034603F479
:101FB0000053B3F5005F40F0DA807B681B68184679
:101FC00003F098FB7B681B68DA687B681B6822F467
:101FD0007052DA607B681B68184602F07AFC034690
:101FE000002B0FD17B680022DA607B684FF400720F
:101FF0005A617B681B68DA687B681B6842F4105280
:10200000DA60A9E07B680322DA607B6840225A61CB
:1020100001F0D6F838613B697B4A93420CD93B69A1
:102020007A4A934208D27B681B68DA687B681B682F
:1020300042F47052DA608FE03B69744A93420CD3E9
:102040003B69734A934208D27B681B68DA687B68F5
:102050001B6842F46052DA607EE03B696C4A93424E
:102060000CD33B696B4A934208D27B681B68DA68E1
:102070007B681B6842F45052DA606DE03B69654A48
:1020800093420CD33B69644A934208D87B681B682F
:10209000DA687B681B6842F44052DA605CE03B69B6
:1020A0005D4A93420CD93B695C4A934208D87B68ED
:1020B0001B68DA687B681B6842F43052DA604BE0D8
:1020C0003B69564A93420CD93B69554A934208D81A
:1020D0007B681B68DA687B681B6842F42052DA6010
:1020E0003AE03B694E4A93420CD93B694D4A9342D0
:1020F00008D27B681B68DA687B681B6842F4105260
:10210000DA6029E03B69474A93420CD33B69464A6F
:10211000934208D87B681B68DA687B681B6842F4C6
:102120000052DA6018E03B693F4A93420CD93B69A0
:102130003E4A934208D27B681B68DA687B681B685A
:1021400042F4E052DA6007E07B681B68DA687B687B
:102150001B6842F4C052DA60786807F00CF97B68BB
:102160001B685A697B681B6802F400525A617B68DD
:102170001B68184603F025FA034603F01003102BE2
:1021800075D17B681B689A697B681B6822F0100216
:102190009A613B6A1B6A7B617B6903F00F021346FD
:1021A000DB009B1A9B0003F5FC737A681344FB6009
:1021B0007B695B0C03F00F03022B39D17A6947F678
:1021C000F0731340002B4AD0FB68D9687B691B0968
:1021D0009BB2C3F30A039BB21A46386A03F0A4F811
:1021E000FB68DA687B691B09C3F30A031A44FB68BE
:1021F000DA60FB689A697B691B09C3F30A031A4416
:10220000FB689A612BE000BFBFACD800C0E1E400DE
:102210000024F400807306019F491A01FF2C31014C
:102220003FA44C0100366E011FABA6010048E80137
:102230007B695B0C03F00F03062B10D17B6803F561
:102240006F7308221946386A03F06EF8FB689A69C2
:102250007B691B09C3F30A031A44FB689A617B6814
:102260001B689A697B681B6842F010029A617B6860
:102270001B68184603F0A5F9034603F00803082B72
:102280000AD1786807F069F87B681B685A697B682F
:102290001B6802F008025A617B681B68184603F04D
:1022A00090F9034603F48013B3F5801F0DD17B6AC8
:1022B000DBB21946786807F0CDF87B681B685A696D
:1022C0007B681B6802F480125A617B681B681846A1
:1022D00003F077F9034603F40013B3F5001F0DD1A3
:1022E0007B6ADBB21946786807F0A2F87B681B6846
:1022F0005A697B681B6802F400125A617B681B688C
:10230000184603F05EF9034603F08043B3F1804FB3
:102310000AD1786807F0B0F87B681B685A697B6857
:102320001B6802F080425A617B681B68184603F004
:1023300048F9034603F00403042B15D17B681B689E
:102340005B687B617B6903F00403002B02D0786833
:1023500007F0A0F87B681B6859687B681B687A697E
:102360000A435A6000E000BF3037BD4680BD00BF61
:1023700080B582B000AF78600B46FB707B6893F845
:10238000B833012B01D102230FE07B68012283F8CF
:10239000B8237B681B68FA781146184603F0C1F829
:1023A0007B68002283F8B823002318460837BD460F
:1023B00080BD80B584B000AF7860084611461A46EB
:1023C0000346FB700B463B801346BB700023FB7239
:1023D00097F90330002B0BDAFB7803F07F021346EA
:1023E000DB009B1A9B0038337A681344FB600BE0D8
:1023F000FB7803F07F021346DB009B1A9B0003F57A
:10240000FC737A681344FB60FB7803F07F03DAB255
:10241000FB681A7097F90330DBB2DB09DBB21A46AE
:10242000FB685A703A88FB689A60FB68BA78DA7081
:10243000FB685B78002B04D0FB681B789AB2FB68C2
:10244000DA80BB78022B02D1FB6800221A717B680C
:1024500093F8B833012B01D102230EE07B680122EF
:1024600083F8B8237B681B68F968184602F066FA9F
:102470007B68002283F8B823FB7A18461037BD46E4
:1024800080BD80B584B000AF78600B46FB7097F9D3
:102490000330002B0BDAFB7803F07F021346DB00DE
:1024A0009B1A9B0038337A681344FB600BE0FB787F
:1024B00003F07F021346DB009B1A9B0003F5FC73BD
:1024C0007A681344FB60FB7803F07F03DAB2FB68A1
:1024D0001A7097F90330DBB2DB09DBB21A46FB68EE
:1024E0005A707B6893F8B833012B01D102230EE0B8
:1024F0007B68012283F8B8237B681B68F96818465B
:1025000002F0A2FA7B68002283F8B8230023184661
:102510001037BD4680BD80B586B000AFF8607A60E8
:102520003B600B46FB72FB7A03F07F021346DB0035
:102530009B1A9B0003F5FC73FA6813447B617B696B
:102540007A68DA607B693A685A617B6900229A612D
:102550007B6900225A70FB7A03F07F03DAB27B6951
:102560001A70FB681B69012B02D17A687B691A61BA
:10257000FB7A03F07F03002B09D1FB681868FB6826
:102580001B69DBB21A46796902F048FD08E0FB6876
:102590001868FB681B69DBB21A46796902F010FB08
:1025A000002318461837BD4680BD80B483B000AF05
:1025B00078600B46FB70FB7803F00F0279681346D6
:1025C000DB009B1A9B000B4403F504731B689BB252
:1025D00018460C37BD465DF8047B704780B586B061
:1025E00000AFF8607A603B600B46FB72FB7A03F049
:1025F0007F021346DB009B1A9B003833FA681344B2
:102600007B617B697A68DA607B693A685A617B69C9
:1026100000229A617B6901225A70FB7A03F07F03E2
:10262000DAB27B691A70FB681B69012B02D17A68E8
:102630007B691A61FB7A03F07F03002B09D1FB68E9
:102640001868FB681B69DBB21A46796902F0E6FC80
:1026500008E0FB681868FB681B69DBB21A467969F9
:1026600002F0AEFA002318461837BD4680BD80B58B
:1026700084B000AF78600B46FB7097F90330002BF5
:102680000BDAFB7803F07F021346DB009B1A9B00FA
:1026900038337A681344FB6009E0FA781346DB00AC
:1026A0009B1A9B0003F5FC737A681344FB60FB687C
:1026B00001229A70FB7803F07F03DAB2FB681A708C
:1026C00097F90330DBB2DB09DBB21A46FB685A70BC
:1026D0007B6893F8B833012B01D102231EE07B689D
:1026E000012283F8B8237B681B68F968184602F05A
:1026F00042FEFB7803F07F03002B0AD17B68186849
:102700007B681B69D9B27B6803F56F731A4603F0C7
:1027100024F87B68002283F8B8230023184610377A
:10272000BD4680BD80B584B000AF78600B46FB70BD
:1027300097F90330002B0BDAFB7803F07F02134686
:10274000DB009B1A9B0038337A681344FB6009E076
:10275000FA781346DB009B1A9B0003F5FC737A683A
:102760001344FB60FB6800229A70FB7803F07F0340
:10277000DAB2FB681A7097F90330DBB2DB09DBB21F
:102780001A46FB685A707B6893F8B833012B01D165
:1027900002230EE07B68012283F8B8237B681B6864
:1027A000F968184602F054FE7B68002283F8B823CB
:1027B000002318461037BD4680BD80B58AB002AFF1
:1027C000786039607B681B687B610023FB610023B4
:1027D0003B613A681346DB009B1A9B0038337A68EA
:1027E0001344FB60FB685A69FB689B69D31AFB6161
:1027F000FB689A68FB699A4202D2FB689B68FB619E
:10280000FB6903339B08BB612BE0FB685A69FB68DB
:102810009B69D31AFB61FB689A68FB699A4202D2F2
:10282000FB689B68FB61FB6903339B08BB61FB682A
:10283000D9683B68DAB2FB6998B27B681B69DBB286
:1028400000930346786902F03AFDFB68DA68FB6999
:102850001A44FB68DA60FB689A69FB691A44FB68F2
:102860009A613B685A017B69134403F510639B69C5
:102870009BB2BA699A4209D2FB689A69FB685B69A4
:102880009A4203D2FB685B69002BBED1FB69002B27
:102890000FD101223B6802FA03F33B617B6903F528
:1028A00000635A6B3B69DB43796901F500611340B2
:1028B0004B63002318462037BD4680BD80B485B0E9
:1028C00000AF78600B46FB7013463B800023FB7320
:1028D0000023BB607B681B685B6ABB60FB78002BD6
:1028E00007D13B8819047B681B68BA680A439A625F
:1028F00028E07B681B689B6A1B0CBA681344BB60AA
:102900000023FB730DE07B681A68FB7B40339B0060
:1029100013445B681B0CBA681344BB60FB7B013338
:10292000FB73FA7BFB78013B9A42ECDB3B88180493
:102930007B681968FB78013BBA68024340339B000F
:102940000B445A60002318461437BD465DF8047BDB
:10295000704780B483B000AF78600B467B807B68A3
:102960001B687A885A62002318460C37BD465DF80A
:10297000047B704780B586B000AF78607B68002B21
:1029800001D101232AE27B681B6803F00103002BBD
:1029900075D0884B9B6803F00C03042B0CD0854B3F
:1029A0009B6803F00C03082B12D1824B5B6803F485
:1029B0008003B3F5800F0BD17E4B1B6803F400330B
:1029C000002B5BD07B685B68002B57D1012305E2AD
:1029D0007B685B68B3F5803F06D1764B1B68754A10
:1029E00043F4803313601DE07B685B68B3F5A02F70
:1029F0000CD1704B1B686F4A43F4802313606D4BFE
:102A00001B686C4A43F4803313600BE0694B1B680E
:102A1000684A23F480331360664B1B68654A23F4CD
:102A2000802313607B685B68002B13D0FDF718FED2
:102A3000386108E0FDF714FE02463B69D31A642BA7
:102A400001D90323CAE15B4B1B6803F40033002B5D
:102A5000F0D014E0FDF704FE386108E0FDF700FE59
:102A600002463B69D31A642B01D90323B6E1514BCB
:102A70001B6803F40033002BF0D100E000BF7B683B
:102A80001B6803F00203002B63D04A4B9B6803F0E2
:102A90000C03002B0BD0474B9B6803F00C03082B57
:102AA0001CD1444B5B6803F48003002B16D1414BCF
:102AB0001B6803F00203002B05D07B68DB68012B49
:102AC00001D001238AE13B4B1B6823F0F8027B68AD
:102AD0001B69DB00374913430B603AE07B68DB6816
:102AE000002B20D0344B01221A60FDF7B9FD38616C
:102AF00008E0FDF7B5FD02463B69D31A022B01D968
:102B000003236BE12B4B1B6803F00203002BF0D077
:102B1000284B1B6823F0F8027B681B69DB00254902
:102B200013430B6015E0244B00221A60FDF798FD5B
:102B3000386108E0FDF794FD02463B69D31A022B89
:102B400001D903234AE11B4B1B6803F00203002B4E
:102B5000F0D17B681B6803F00803002B36D07B683C
:102B60005B69002B16D0154B01221A60FDF778FD2A
:102B7000386108E0FDF774FD02463B69D31A022B69
:102B800001D903232AE10B4B5B6F03F00203002BF7
:102B9000F0D01BE0094B00221A60FDF761FD38619F
:102BA0000EE0FDF75DFD02463B69D31A022B07D903
:102BB000032313E10038024000004742800E4742E1
:102BC000884B5B6F03F00203002BEAD17B681B6824
:102BD00003F00403002B00F097800023FB75814B6A
:102BE0001B6C03F08053002B0FD10023FB607D4B47
:102BF0001B6C7C4A43F0805313647A4B1B6C03F0CC
:102C00008053FB60FB680123FB75774B1B6803F463
:102C10008073002B18D1744B1B68734A43F4807384
:102C20001360FDF71DFD386108E0FDF719FD024650
:102C30003B69D31A022B01D90323CFE06A4B1B68EF
:102C400003F48073002BF0D07B689B68012B06D1C6
:102C5000644B1B6F634A43F0010313671CE07B68FE
:102C60009B68052B0CD15F4B1B6F5E4A43F004033E
:102C700013675C4B1B6F5B4A43F0010313670BE068
:102C8000584B1B6F574A23F001031367554B1B6FBB
:102C9000544A23F0040313677B689B68002B15D00C
:102CA000FDF7DEFC38610AE0FDF7DAFC02463B691D
:102CB000D31A41F28832934201D903238EE0494B63
:102CC0001B6F03F00203002BEED014E0FDF7C8FCED
:102CD00038610AE0FDF7C4FC02463B69D31A41F2B1
:102CE0008832934201D9032378E03E4B1B6F03F0F7
:102CF0000203002BEED1FB7D012B05D1394B1B6C60
:102D0000384A23F0805313647B689B69002B64D09E
:102D1000344B9B6803F00C03082B5CD07B689B69E9
:102D2000022B41D1314B00221A60FDF799FC38612A
:102D300008E0FDF795FC02463B69D31A022B01D946
:102D400003234BE0274B1B6803F00073002BF0D1EB
:102D50007B68DA697B681B6A1A437B685B6A9B0144
:102D60001A437B689B6A5B08013B1B041A437B6820
:102D7000DB6A1B061B4913434B601C4B01221A6084
:102D8000FDF76EFC386108E0FDF76AFC02463B691E
:102D9000D31A022B01D9032320E0124B1B6803F046
:102DA0000073002BF0D018E0104B00221A60FDF7E2
:102DB00057FC386108E0FDF753FC02463B69D31A23
:102DC000022B01D9032309E0064B1B6803F00073B3
:102DD000002BF0D101E0012300E000231846183752
:102DE000BD4680BD00380240007000406000474290
:102DF00080B584B000AF786039607B68002B01D16A
:102E00000123CAE0674B1B6803F00F033A689A423C
:102E10000CD9644B3A68D2B21A70624B1B6803F04B
:102E20000F033A689A4201D00123B6E07B681B6821
:102E300003F00203002B20D07B681B6803F004031F
:102E4000002B05D0584B9B68574A43F4E0539360DE
:102E50007B681B6803F00803002B05D0524B9B686E
:102E6000514A43F4604393604F4B9B6823F0F00258
:102E70007B689B684C4913438B607B681B6803F03D
:102E80000103002B44D07B685B68012B07D1464BC4
:102E90001B6803F40033002B19D101237DE07B680C
:102EA0005B68022B03D07B685B68032B07D13E4B2A
:102EB0001B6803F00073002B09D101236DE03A4B2E
:102EC0001B6803F00203002B01D1012365E0364BA0
:102ED0009B6823F003027B685B68334913438B6074
:102EE000FDF7BEFBF8600AE0FDF7BAFB0246FB689F
:102EF000D31A41F28832934201D903234DE02A4B81
:102F00009B6803F00C027B685B689B009A42EBD1E4
:102F1000244B1B6803F00F033A689A420CD2214BF2
:102F20003A68D2B21A701F4B1B6803F00F033A685D
:102F30009A4201D0012330E07B681B6803F0040350
:102F4000002B08D0184B9B6823F4E0527B68DB68A9
:102F5000154913438B607B681B6803F00803002B43
:102F600009D0114B9B6823F460427B681B69DB002E
:102F70000D4913438B6000F01DF802460A4B9B6815
:102F80001B0903F00F030949CB5C22FA03F3084A3B
:102F900013600020FDF720FB002318461037BD46C4
:102FA00080BD00BF003C024000380240C8AE0008AF
:102FB000180100202DE9B04F94B000AF00237B64CE
:102FC0000023FB6400233B640023BB64794B9B68B4
:102FD00003F00C03082B0DD0082B00F2E180002B2E
:102FE00002D0042B03D0DBE0734BBB64DBE0734BFC
:102FF000BB64D8E06F4B5B6803F03F037B646D4BB1
:103000005B6803F48003002B63D06A4B5B689B0909
:103010000022BB63FA63BB6BC3F308033B6300236B
:103020007B63D7E90C4522462B464FF000004FF05A
:103030000001590141EAD261500102460B46214686
:10304000511A3961294663EB01037B614FF000029D
:103050004FF00003D7E904AB59468B01514643EAD0
:10306000916351468A015146B2EB0108594663EB20
:1030700001094FF000024FF000034FEAC90343EA91
:1030800058734FEAC80290469946234618EB03034B
:10309000BB602B4649EB0303FB604FF000024FF08F
:1030A0000003D7E9024529464B02214643EAD153A2
:1030B00021464A02104619467B6C0022BB62FA6226
:1030C000D7E90A23FDF7E4F802460B461346FB64F2
:1030D00058E0384B5B689B09002218461146C0F344
:1030E00008033B6200237B62D7E9088942464B46CE
:1030F0004FF000004FF00001590141EAD261500148
:1031000002460B464146B2EB010A494663EB010B0E
:103110004FF000024FF000034FEA8B1343EA9A632B
:103120004FEA8A12B2EB0A0463EB0B054FF0000280
:103130004FF00003EB0043EA5473E20014461D46CF
:103140004346E3183B604B4645EB03037B604FF07F
:1031500000024FF00003D7E9004529468B022146C3
:1031600043EA915321468A02104619467B6C00229D
:10317000BB61FA61D7E90623FDF78AF802460B46E0
:103180001346FB640B4B5B681B0C03F0030301331A
:103190005B003B64FA6C3B6CB2FBF3F3BB6402E094
:1031A000054BBB6400BFBB6C18465037BD46BDE83D
:1031B000B08F00BF003802400024F40000127A00F3
:1031C00080B400AF034B1B681846BD465DF8047B16
:1031D000704700BF1801002080B500AFFFF7F0FF77
:1031E0000246054B9B689B0A03F007030349CB5C2F
:1031F00022FA03F3184680BD00380240D8AE00081A
:1032000080B586B000AF786000237B6100233B610E
:103210007B681B6803F00103002B05D17B681B68EA
:1032200003F00403002B35D0624B00221A60FDF737
:1032300017FA786108E0FDF713FA02467B69D31AA2
:10324000022B01D90323B0E05B4B1B6803F0006342
:10325000002BF0D17B685B689A017B689B681B0739
:1032600055491343C1F88430524B01221A60FDF7CF
:10327000F7F9786108E0FDF7F3F902467B69D31AA4
:10328000022B01D9032390E04B4B1B6803F0006332
:10329000002BF0D07B681B6803F00203002B00F0CA
:1032A00083800023FB60444B1B6C434A43F08053F4
:1032B0001364414B1B6C03F08053FB60FB683F4B76
:1032C0001B683E4A43F480731360FDF7C9F97861C7
:1032D00008E0FDF7C5F902467B69D31A022B01D934
:1032E000032362E0354B1B6803F48073002BF0D09E
:1032F000314B1B6F03F440733B613B69002B2FD0B4
:103300007B68DB6803F440733A699A4228D02A4B01
:103310001B6F23F440733B61294B01221A60284B39
:1033200000221A60244A3B691367234B1B6F03F08A
:103330000103002B14D0FDF793F978610AE0FDF743
:103340008FF902467B69D31A41F28832934201D940
:1033500003232AE0184B1B6F03F00203002BEED06F
:103360007B68DB6803F44073B3F5407F0DD1124BEB
:103370009B6823F4F8127B68DB6823F0704323F426
:1033800040730D4913438B6005E00B4B9B680A4A61
:1033900023F4F8139360084B1A6F7B68DB68C3F360
:1033A0000B03054913430B67002318461837BD4626
:1033B00080BD00BF680047420038024000700040F6
:1033C000400E474280B487B000AF786000237B6135
:1033D00000233B610023FB600023BB607B68012B63
:1033E0003ED1234B9B6803F40003FB60FB68002B7A
:1033F00005D0FB68012B2FD11E4B7B612FE01C4BAE
:103400005B6803F48003B3F5800F08D1184B5B6849
:1034100003F03F03184AB2FBF3F33B6107E0144BA0
:103420005B6803F03F03154AB2FBF3F33B61104BBB
:10343000D3F884309B09C3F308023B6902FB03F312
:10344000BB600B4BD3F884301B0F03F00703BA6843
:10345000B2FBF3F37B6102E000237B6100BF00BF9E
:103460007B6918461C37BD465DF8047B704700BF7A
:10347000003802400080BB0000127A000024F400F3
:1034800080B582B000AF78607B68002B01D101234A
:1034900056E07B6800229A627B6893F85130DBB279
:1034A000002B06D17B68002283F85020786804F056
:1034B00023FD7B68022283F851207B681B681A6811
:1034C0007B681B6822F040021A607B685A687B6840
:1034D0009B681A437B68DB681A437B681B691A4345
:1034E0007B685B691A437B689B6903F400731A432A
:1034F0007B68DB691A437B681B6A42EA03017B68CD
:103500009A6A7B681B680A431A607B689B691B0C7C
:1035100003F004017B685A6A7B681B680A435A609F
:103520007B681B68DA697B681B6822F40062DA61D9
:103530007B6800225A657B68012283F851200023B2
:1035400018460837BD4680BD80B582B000AF7860B0
:103550007B68002B01D101231DE07B6893F8393093
:10356000DBB2002B06D17B68002283F83820786814
:1035700004F0F4FC7B68022283F839207B681A6827
:103580007B6804331946104600F08AFB7B680122F1
:1035900083F83920002318460837BD4680BD80B423
:1035A00083B000AF78607B68022283F839207B68A3
:1035B0001B681A687B681B6842F001021A607B680E
:1035C000012283F83920002318460C37BD465DF8E8
:1035D000047B704780B483B000AF78607B681B6861
:1035E000DA687B681B6842F00102DA607B681B685E
:1035F0001A687B681B6842F001021A6000231846B3
:103600000C37BD465DF8047B704780B582B000AFD3
:1036100078607B68002B01D101231DE07B6893F863
:103620003930DBB2002B06D17B68002283F83820CA
:10363000786804F063FD7B68022283F839207B6898
:103640001A687B6804331946104600F029FB7B6832
:10365000012283F83920002318460837BD4680BD73
:1036600080B582B000AF786039607B681B6801224A
:103670003968184600F036FC7B681B68104A934294
:1036800004D07B681B680F4A934201D1012300E0FC
:103690000023002B07D07B681B685A6C7B681B6873
:1036A00042F400425A647B681B681A687B681B6896
:1036B00042F001021A60002318460837BD4680BD5B
:1036C000000001400004014080B582B000AF786086
:1036D0007B681B681B6903F00203022B22D17B6805
:1036E0001B68DB6803F00203022B1BD17B681B689D
:1036F0006FF002021A617B6801221A767B681B68F0
:103700009B6903F00303002B03D0786800F0A9FA4B
:1037100005E0786800F09BFA786800F0ACFA7B6806
:1037200000221A767B681B681B6903F00403042BD4
:1037300022D17B681B68DB6803F00403042B1BD1D8
:103740007B681B686FF004021A617B6802221A769C
:103750007B681B689B6903F44073002B03D0786877
:1037600000F07FFA05E0786800F071FA786800F000
:1037700082FA7B6800221A767B681B681B6903F05B
:103780000803082B22D17B681B68DB6803F0080361
:10379000082B1BD17B681B686FF008021A617B68DD
:1037A00004221A767B681B68DB6903F00303002B95
:1037B00003D0786800F055FA05E0786800F047FA21
:1037C000786800F058FA7B6800221A767B681B68DC
:1037D0001B6903F01003102B22D17B681B68DB6888
:1037E00003F01003102B1BD17B681B686FF01002D5
:1037F0001A617B6808221A767B681B68DB6903F410
:103800004073002B03D0786800F02BFA05E078684D
:1038100000F01DFA786800F02EFA7B6800221A7614
:103820007B681B681B6903F00103012B0ED17B68C9
:103830001B68DB6803F00103012B07D17B681B6861
:103840006FF001021A61786800F0F7F97B681B6875
:103850001B6903F08003802B0ED17B681B68DB683B
:1038600003F08003802B07D17B681B686FF0800218
:103870001A61786800F0F7FD7B681B681B6903F02C
:103880004003402B0ED17B681B68DB6803F04003CC
:10389000402B07D17B681B686FF040021A61786883
:1038A00000F0F3F97B681B681B6903F02003202BF1
:1038B0000ED17B681B68DB6803F02003202B07D147
:1038C0007B681B686FF020021A61786800F0C1FD08
:1038D00000BF0837BD4680BD80B584B000AFF8603A
:1038E000B9607A60FB6893F83830012B01D102236C
:1038F000B4E0FB68012283F83820FB68022283F8D9
:1039000039207B680C2B00F29F8001A252F823F033
:1039100045390008493A0008493A0008493A000880
:1039200085390008493A0008493A0008493A000830
:10393000C7390008493A0008493A0008493A0008DE
:10394000073A0008FB681B68B968184600F0EEFAF1
:10395000FB681B689A69FB681B6842F008029A6161
:10396000FB681B689A69FB681B6822F004029A6175
:10397000FB681B689969BB681A69FB681B680A4386
:103980009A6162E0FB681B68B968184600F032FA79
:10399000FB681B689A69FB681B6842F400629A61C5
:1039A000FB681B689A69FB681B6822F480629A6155
:1039B000FB681B689969BB681B691A02FB681B6876
:1039C0000A439A6141E0FB681B68B968184600F039
:1039D00021FBFB681B68DA69FB681B6842F0080280
:1039E000DA61FB681B68DA69FB681B6822F0040275
:1039F000DA61FB681B68D969BB681A69FB681B68D8
:103A00000A43DA6121E0FB681B68B968184600F0D8
:103A100079FBFB681B68DA69FB681B6842F400628B
:103A2000DA61FB681B68DA69FB681B6822F4806254
:103A3000DA61FB681B68D969BB681B691A02FB68FD
:103A40001B680A43DA6100E000BFFB68012283F8CB
:103A50003920FB68002283F83820002318461037ED
:103A6000BD4680BD80B584B000AF7860396000236A
:103A7000FB607B6893F83830012B01D10223D8E03A
:103A80007B68012283F838207B68022283F8392082
:103A90007B681B689B68FB60FB6823F07703FB6017
:103AA000FB6823F47F43FB607B681B68FA689A60BD
:103AB0003B681B68B3F5005F52D0B3F5005F00F2BE
:103AC000AE80B3F5805F27D0B3F5805F00F2A780AA
:103AD000702B2AD0702B00F2A280602B63D0602B59
:103AE00000F29D80502B4ED0502B00F29880402B3E
:103AF00069D0402B00F29380302B00F08980302B6E
:103B000000F28D80202B7CD0202B00F28880002BAF
:103B100069D0102B6ED082E07B681B689A687B6846
:103B20001B6822F007029A607AE07B6818683B689D
:103B300099683B685A683B68DB6800F0CAFB7B68A1
:103B40001B689B68FB60FB6823F07703FB60FB68E6
:103B500043F07703FB607B681B68FA689A605FE05C
:103B60007B6818683B6899683B685A683B68DB6803
:103B700000F0AFFB7B681B689A687B681B6842F4A7
:103B800080429A604CE07B6818683B6859683B68E3
:103B9000DB681A4600F016FB7B681B68502118464C
:103BA00000F077FB3CE07B6818683B6859683B682D
:103BB000DB681A4600F039FB7B681B6860211846F9
:103BC00000F067FB2CE07B6818683B6859683B682D
:103BD000DB681A4600F0F6FA7B681B68402118463D
:103BE00000F057FB1CE07B681B680021184600F0C2
:103BF00050FB15E07B681B681021184600F049FB5C
:103C00000EE07B681B682021184600F042FB07E0AD
:103C10007B681B683021184600F03BFB00E000BFCA
:103C20007B68012283F839207B68002283F83820E2
:103C3000002318461037BD4680BD80B483B000AF66
:103C4000786000BF0C37BD465DF8047B704780B4D8
:103C500083B000AF786000BF0C37BD465DF8047BD1
:103C6000704780B483B000AF786000BF0C37BD46AA
:103C70005DF8047B704780B483B000AF786000BF0C
:103C80000C37BD465DF8047B704780B483B000AF4D
:103C9000786000BF0C37BD465DF8047B70470000BC
:103CA00080B485B000AF786039600023FB607B682A
:103CB0001B68FB607B68444A934213D07B68B3F176
:103CC000804F0FD07B68414A93420BD07B68404ABB
:103CD000934207D07B683F4A934203D07B683E4AB9
:103CE000934201D1012300E00023002B08D0FB68A0
:103CF00023F07003FB603B685B68FA681343FB606A
:103D00007B68314A93422BD07B68B3F1804F27D038
:103D10007B682E4A934223D07B682D4A93421FD062
:103D20007B682C4A93421BD07B682B4A934217D066
:103D30007B682A4A934213D07B68294A93420FD06A
:103D40007B68284A93420BD07B68274A934207D06E
:103D50007B68264A934203D07B68254A934201D16F
:103D6000012300E00023002B08D0FB6823F44073FC
:103D7000FB603B68DB68FA681343FB607B68FA68AA
:103D80001A603B689A687B68DA623B681A687B68ED
:103D90009A627B680C4A934203D07B680E4A934236
:103DA00001D1012300E00023002B03D03B681A69F6
:103DB0007B681A637B6801225A6100BF1437BD46D5
:103DC0005DF8047B704700BF000001400004004024
:103DD00000080040000C0040000401400040014089
:103DE000004401400048014000180040001C004011
:103DF0000020004080B487B000AF786039600023B5
:103E0000FB6000237B6100233B617B681B6A23F01E
:103E100010027B681A627B681B6A7B617B685B6847
:103E20003B617B689B69FB60FB6823F4E043FB60BC
:103E3000FB6823F44073FB603B681B681B02FA6855
:103E40001343FB607B6923F020037B613B689B6825
:103E50001B017A6913437B617B68204A934203D03C
:103E60007B681F4A934201D1012300E00023002B0D
:103E700021D07B6923F080037B613B68DB681B01F9
:103E80007A6913437B617B6923F040037B613B6963
:103E900023F480633B613B6923F400633B613B682F
:103EA0005B699B003A6913433B613B689B699B00DC
:103EB0003A6913433B617B683A695A607B68FA68E8
:103EC0009A613B685A687B689A637B687A691A6270
:103ED00000BF1C37BD465DF8047B70470000014001
:103EE0000004014080B487B000AFF860B9607A6028
:103EF00000237B610122BB6802FA03F37B61FB684C
:103F00001A6A7B69DB431A40FB681A62FB681A6A0B
:103F10007968BB6801FA03F31A43FB681A6200BFB1
:103F20001C37BD465DF8047B7047000080B487B045
:103F300000AF786039600023FB6000237B610023C1
:103F40003B617B681B6A23F001027B681A627B6815
:103F50001B6A7B617B685B683B617B689B69FB607C
:103F6000FB6823F07003FB60FB6823F00303FB6036
:103F70003B681B68FA681343FB607B6923F002030C
:103F80007B613B689B687A6913437B617B681F4A4E
:103F9000934203D07B681E4A934201D1012300E083
:103FA0000023002B1ED07B6923F008037B613B6854
:103FB000DB687A6913437B617B6923F004037B61CF
:103FC0003B6923F480733B613B6923F400733B61DD
:103FD0003B685B693A6913433B613B689B693A699B
:103FE00013433B617B683A695A607B68FA689A615F
:103FF0003B685A687B685A637B687A691A6200BFBB
:104000001C37BD465DF8047B704700BF00000140CF
:104010000004014080B487B000AF786039600023AD
:10402000FB6000237B6100233B617B681B6A23F4F8
:1040300080727B681A627B681B6A7B617B685B6845
:104040003B617B68DB69FB60FB6823F07003FB600E
:10405000FB6823F00303FB603B681B68FA681343AB
:10406000FB607B6923F400737B613B689B681B02E8
:104070007A6913437B617B68204A934203D07B6853
:104080001F4A934201D1012300E00023002B21D0DD
:104090007B6923F400637B613B68DB681B027A6900
:1040A00013437B617B6923F480637B613B6923F469
:1040B00080533B613B6923F400533B613B685B6980
:1040C0001B013A6913433B613B689B691B013A69D9
:1040D00013433B617B683A695A607B68FA68DA612E
:1040E0003B685A687B68DA637B687A691A6200BF4A
:1040F0001C37BD465DF8047B704700BF00000140DF
:104100000004014080B487B000AF786039600023BC
:104110003B610023FB6000237B617B681B6A23F407
:1041200080527B681A627B681B6AFB607B685B68F5
:104130007B617B68DB693B613B6923F4E0433B6166
:104140003B6923F440733B613B681B681B023A697F
:1041500013433B61FB6823F40053FB603B689B689F
:104160001B03FA681343FB607B68144A934203D035
:104170007B68134A934201D1012300E00023002B06
:1041800009D07B6923F480437B613B685B699B01B9
:104190007A6913437B617B687A695A607B683A6904
:1041A000DA613B685A687B681A647B68FA681A624D
:1041B00000BF1C37BD465DF8047B7047000001401E
:1041C0000004014080B487B000AFF860B9607A6045
:1041D00000237B6100233B61FB681B6A3B61FB683A
:1041E0001B6A23F00102FB681A62FB689B697B6112
:1041F0007B6923F0F0037B617B681B017A691343C1
:104200007B613B6923F00A033B613A69BB68134356
:104210003B61FB687A699A61FB683A691A6200BF80
:104220001C37BD465DF8047B704780B487B000AF93
:10423000F860B9607A6000237B6100233B61FB6812
:104240001B6A23F01002FB681A62FB689B697B61A2
:10425000FB681B6A3B617B6923F470437B617B686D
:104260001B037A6913437B613B6923F0A0033B6125
:10427000BB681B013A6913433B61FB687A699A6129
:10428000FB683A691A6200BF1C37BD465DF8047BC3
:10429000704780B485B000AF78600B467B80002308
:1042A000FB607B689B68FB60FB6823F07003FB602E
:1042B0007B8843F007039BB21A46FB681343FB60FD
:1042C0007B68FA689A6000BF1437BD465DF8047BCE
:1042D000704780B487B000AFF860B9607A603B6027
:1042E00000237B61FB689B687B617B6923F47F43D0
:1042F0007B613B681A027B681A43BB6813437A6987
:1043000013437B61FB687A699A6000BF1C37BD4626
:104310005DF8047B704780B483B000AF786039608B
:104320007B6893F83830012B01D1022332E07B689F
:10433000012283F838207B68022283F839207B68C9
:104340001B685A687B681B6822F070025A607B68A1
:104350001B6859683B681A687B681B680A435A6087
:104360007B681B689A687B681B6822F080029A60F1
:104370007B681B6899683B685A687B681B680A43BE
:104380009A607B68012283F839207B68002283F8D9
:104390003820002318460C37BD465DF8047B704773
:1043A00080B485B000AF786039600023FB607B6823
:1043B00093F83830012B01D1022344E07B680122BD
:1043C00083F83820FB6823F0FF023B68DB68134367
:1043D000FB60FB6823F440723B689B681343FB60FF
:1043E000FB6823F480623B685B681343FB60FB68F7
:1043F00023F400623B681B681343FB60FB6823F4F3
:1044000080523B681B691343FB60FB6823F4005236
:104410003B685B691343FB60FB6823F480423B68A5
:104420009B691343FB60FB6823F400423B689B6974
:104430001343FB607B681B68FA685A647B68002240
:1044400083F83820002318461437BD465DF8047BF6
:10445000704780B483B000AF786000BF0C37BD46B2
:104460005DF8047B704780B483B000AF786000BF14
:104470000C37BD465DF8047B704784B080B582B0D0
:1044800000AF786007F1140080E80E00BB6A012BD2
:1044900020D17B689B6B23F480327B689A637B68B6
:1044A000DB6823F4840323F040037A68D3607B68DD
:1044B000DB6823F440127B68DA607B6C012B05D14A
:1044C0007B68DB6843F480127B68DA60786801F00F
:1044D00087F90CE07B68DB6843F040027B68DA60B8
:1044E000786801F07DF97B684FF480329A633B6A0B
:1044F000012B0BD17B689B6843F006027B689A60B6
:104500007B689B6843F020027B689A600023184612
:104510000837BD46BDE8804004B0704780B483B022
:1045200000AF78607B689B6843F001027B689A600B
:10453000002318460C37BD465DF8047B704780B4F5
:1045400083B000AF78607B689B6823F001027B68D2
:104550009A60002318460C37BD465DF8047B70470F
:1045600080B582B000AF78600B46FB707B68DB687B
:1045700023F0C0427B68DA60FB78012B06D17B68B0
:10458000DB6843F000527B68DA6008E0FB78002BC0
:1045900005D17B68DB6843F080427B68DA603220BB
:1045A000FCF76AF8002318460837BD4680BD0000B6
:1045B00084B080B584B000AF786007F11C0080E85B
:1045C0000E000023FB607B6C002B06D17B689B6B8D
:1045D00043F400127B689A6305E07B689B6B43F4AD
:1045E00000227B689A637B6803F560631A460023A8
:1045F00013607B6803F5006319467B6803F500636D
:104600001A460B6813603B6B012B0CD17B6A002BA5
:1046100004D10021786800F045F908E001217868AC
:1046200000F040F903E00321786800F03BF9102125
:10463000786800F0EFF8786800F012F97B6803F50D
:1046400000631A46002313617B6803F500631A4672
:10465000002353617B6803F500631A464FF0FF3374
:1046600093617B6803F500631A460023D36100233E
:10467000FB6034E0FB685A017B68134403F5106368
:104680001B6803F00043B3F1004F0AD1FB685A01E5
:104690007B68134403F510631A464FF09043136090
:1046A00008E0FB685A017B68134403F510631A465F
:1046B00000231360FB685A017B68134403F5106301
:1046C0001A4600231361FB685A017B68134403F503
:1046D00010631A46FF239360FB680133FB60FB699C
:1046E000FA689A42C6D30023FB6034E0FB685A01A3
:1046F0007B68134403F530631B6803F00043B3F198
:10470000004F0AD1FB685A017B68134403F53063FC
:104710001A464FF09043136008E0FB685A017B682B
:10472000134403F530631A4600231360FB685A01F3
:104730007B68134403F530631A4600231361FB685A
:104740005A017B68134403F530631A46FF239360D4
:10475000FB680133FB60FB69FA689A42C6D37B6849
:1047600003F500631B697A6802F5006223F4807325
:104770001361BB6A012B16D17B6803F500631A46EF
:10478000224B13637B6803F500631B6B7A6802F5A9
:10479000006243F4803343F0030313637B6803F543
:1047A00000631B6BFB607B6800229A617B686FF083
:1047B00080425A61BB6A002B05D17B689B6943F03C
:1047C00010027B689A617B689A69114B13437A687F
:1047D00093617B6B002B05D07B689B6943F00802DB
:1047E0007B689A617B6C012B07D17B689B6943F0E6
:1047F000804343F004037A6893610023184610371E
:10480000BD46BDE8804004B0704700BF0001800095
:1048100000383C8080B485B000AF786039600023F8
:10482000FB603B689B0143F020027B681A61FB68D8
:104830000133FB60FB68094A934201D9032306E078
:104840007B681B6903F02003202BF0D0002318465F
:104850001437BD465DF8047B704700BF400D030070
:1048600080B485B000AF78600023FB607B681022C5
:104870001A61FB680133FB60FB68094A934201D966
:10488000032306E07B681B6903F01003102BF0D0B4
:10489000002318461437BD465DF8047B704700BFFF
:1048A000400D030080B483B000AF78600B46FB700E
:1048B0007B6803F500631A68FB78796801F500618D
:1048C00013430B60002318460C37BD465DF8047B8C
:1048D000704780B485B000AF78600023FB737B68BD
:1048E00003F500639B6803F00603002B02D100234D
:1048F000FB731CE07B6803F500639B6803F0060311
:10490000022B07D07B6803F500639B6803F0060366
:10491000062B02D10323FB7309E07B6803F50063D8
:104920009B6803F00603042B01D10223FB73FB7B7E
:1049300018461437BD465DF8047B704780B483B0D9
:1049400000AF786039603B685B78012B3CD17B68B5
:1049500003F50063DA693B681B78194601238B4035
:104960009BB2796801F500611343CB613B681B780A
:104970005A017B68134403F510631B6803F400437A
:10498000002B59D13B681B785A017B68134403F50F
:1049900010631A683B689B68C3F30A033968C978D7
:1049A00089040B433968097889050B4313433A6836
:1049B000127851017A680A4402F5106243F080537C
:1049C00043F40043136037E07B6803F50063DA6962
:1049D0003B681B78194601238B401B04796801F55D
:1049E00000611343CB613B681B785A017B68134419
:1049F00003F530631B6803F40043002B1CD13B68B4
:104A00001B785A017B68134403F530631A683B68CE
:104A10009B68C3F30A033968C97889040B431343BD
:104A20003A68127851017A680A4402F5306243F01C
:104A3000805343F400431360002318460C37BD46EF
:104A40005DF8047B7047000080B584B000AF7860EB
:104A500039600023FB603B685B78012B52D13B68D7
:104A60001B785A017B68134403F510631B683A688E
:104A7000127851017A680A4402F5106223F4004367
:104A800013603B681B785A017B68134403F510637D
:104A90001A464FF0006313603B681B785A017B682D
:104AA000134403F510631A464FF080431360FB680C
:104AB0000133FB60FB68414A934201D9032379E04B
:104AC0003B681B785A017B68134403F510639B68AD
:104AD00003F08043B3F1804FE9D010217868FFF7ED
:104AE00099FE7B6803F50063DA693B681B78194619
:104AF00001238B409BB2DB43796801F500611340D1
:104B0000CB6156E03B681B785A017B68134403F580
:104B100030631B683A68127851017A680A4402F5DA
:104B2000306223F4004313603B681B785A017B68B2
:104B3000134403F530631A464FF0006313603B687B
:104B40001B785A017B68134403F530631A464FF013
:104B500080431360FB680133FB60FB68174A934294
:104B600001D9032326E03B681B785A017B68134474
:104B700003F530639B6803F01003102BEAD07B68C9
:104B800003F500635B687A6802F5006243F48063B2
:104B900053607B6803F50063DA693B681B7819464C
:104BA00001238B401B04DB43796801F5006113404E
:104BB000CB61002318461037BD4680BD400D030071
:104BC00080B588B002AFF860B9601346FB7100236E
:104BD000FB82BB685B78012B40F03981BB685B6965
:104BE000002B38D1BB681B785A01FB68134403F5CE
:104BF00010631B69BA6812785101FA680A4402F519
:104C0000106223F0FF5323F4C0131361BB681B78B9
:104C10005A01FB68134403F510631B69BA681278E4
:104C20005101FA680A4402F5106243F4002313614B
:104C3000BB681B785A01FB68134403F510631B69BA
:104C4000BA6812785101FA680A4402F51062DB0C66
:104C5000DB04136180E0BB681B785A01FB681344D6
:104C600003F510631B69BA6812785101FA680A44A7
:104C700002F51062DB0CDB041361BB681B785A0180
:104C8000FB68134403F510631B69BA68127851017D
:104C9000FA680A4402F5106223F0FF5323F4C013AC
:104CA0001361BB681B785A01FB68134403F510635A
:104CB0001A69BB685969BB689B680B44591EBB687D
:104CC0009B68B1FBF3F3D9048A4B0B40B9680978B0
:104CD0004801F968014401F5106113430B61BB6899
:104CE0001B785A01FB68134403F510631A69BB680B
:104CF0005B69C3F31203B96809784801F968014494
:104D000001F5106113430B61BB68DB78012B23D1E4
:104D1000BB681B785A01FB68134403F510631B69D9
:104D2000BA6812785101FA680A4402F5106223F059
:104D3000C0431361BB681B785A01FB68134403F539
:104D400010631B69BA6812785101FA680A4402F5C7
:104D5000106243F000531361FB79012B0BD1BB6848
:104D60001B785A01FB68134403F510631A46BB68AD
:104D70001B69536115E0BB68DB78012B11D0BB6860
:104D80005B69002B0DD0FB6803F500635A6BBB68B1
:104D90001B78194601238B40F96801F50061134324
:104DA0004B63BB68DB78012B2CD1FB6803F50063F8
:104DB0009B6803F48073002B12D1BB681B785A01E7
:104DC000FB68134403F510631B68BA68127851013D
:104DD000FA680A4402F5106243F00053136011E0D0
:104DE000BB681B785A01FB68134403F510631B680A
:104DF000BA6812785101FA680A4402F5106243F069
:104E000080531360BB681B785A01FB68134403F599
:104E100010631B68BA6812785101FA680A4402F5F7
:104E2000106243F004431360BB68DB78012B40F051
:104E3000ED80BB68D968BB681A78BB685B6998B2BB
:104E4000FB7900930346F86800F039FADEE0BB68AE
:104E50001B785A01FB68134403F530631B69BA6879
:104E600012785101FA680A4402F53062DB0CDB0467
:104E70001361BB681B785A01FB68134403F5306368
:104E80001B69BA6812785101FA680A4402F5306267
:104E900023F0FF5323F4C0131361BB685B69002B3D
:104EA0002AD1BB681B785A01FB68134403F53063B1
:104EB0001A69BB689B68C3F31203B9680978480193
:104EC000F968014401F5306113430B61BB681B783D
:104ED0005A01FB68134403F530631B69BA68127802
:104EE0005101FA680A4402F5306243F40023136169
:104EF0003BE000BF0000F81FBB685A69BB689B68B5
:104F000013445A1EBB689B68B2FBF3F3FB82BB6879
:104F10001B785A01FB68134403F530631A69FB8A56
:104F2000DB0419463C4B0B40B96809784801F96825
:104F3000014401F5306113430B61BB681B785A01D2
:104F4000FB68134403F530631A69BB689B68F98AF0
:104F500001FB03F3C3F31203B96809784801F96848
:104F6000014401F5306113430B61FB79012B0AD138
:104F7000BB68D968BB681B785A01FB68134403F50A
:104F800030630A465A61BB68DB78012B2CD1FB6881
:104F900003F500639B6803F48073002B12D1BB6898
:104FA0001B785A01FB68134403F530631B68BA6829
:104FB00012785101FA680A4402F5306243F0005356
:104FC000136011E0BB681B785A01FB68134403F5BA
:104FD00030631B68BA6812785101FA680A4402F516
:104FE000306243F080531360BB681B785A01FB6842
:104FF000134403F530631B68BA6812785101FA68EC
:105000000A4402F5306243F004431360002318465B
:105010001837BD4680BD00BF0000F81F80B485B0C2
:1050200000AFF860B9601346FB71BB685B78012B79
:1050300040F0C980BB685B69002B38D1BB681B7826
:105040005A01FB68134403F510631B69BA681278B0
:105050005101FA680A4402F5106223F0FF5323F469
:10506000C0131361BB681B785A01FB68134403F536
:1050700010631B69BA6812785101FA680A4402F594
:10508000106243F400231361BB681B785A01FB686C
:10509000134403F510631B69BA6812785101FA686A
:1050A0000A4402F51062DB0CDB04136156E0BB68B6
:1050B0001B785A01FB68134403F510631B69BA6837
:1050C00012785101FA680A4402F51062DB0CDB0425
:1050D0001361BB681B785A01FB68134403F5106326
:1050E0001B69BA6812785101FA680A4402F5106225
:1050F00023F0FF5323F4C0131361BB685A69BB68E4
:105100009B689A4203D9BB689A68BB685A61BB68BE
:105110001B785A01FB68134403F510631B69BA68D6
:1051200012785101FA680A4402F5106243F4002330
:105130001361BB681B785A01FB68134403F51063C5
:105140001A69BB685B69C3F31203B968097848013F
:10515000F968014401F5106113430B61BB681B78CA
:105160005A01FB68134403F510631B68BA68127890
:105170005101FA680A4402F5106243F004431360D7
:10518000FB79012B0BD1BB681B785A01FB681344D8
:1051900003F510631A46BB681B69536188E0BB685E
:1051A0005B69002B00F08480FB6803F500635A6B99
:1051B000BB681B78194601238B40F96801F5006133
:1051C00013434B6374E0BB681B785A01FB681344BC
:1051D00003F530631B69BA6812785101FA680A4412
:1051E00002F53062DB0CDB041361BB681B785A01EB
:1051F000FB68134403F530631B69BA6812785101E8
:10520000FA680A4402F5306223F0FF5323F4C01316
:105210001361BB685B69002B03D0BB689A68BB68ED
:105220005A61BB681B785A01FB68134403F530636D
:105230001B69BA6812785101FA680A4402F53062B3
:1052400043F400231361BB681B785A01FB681344C5
:1052500003F530631A69BB689B68C3F31203B9682E
:1052600009784801F968014401F5306113430B6185
:10527000FB79012B0AD1BB68D968BB681B785A013E
:10528000FB68134403F530630A465A61BB681B7818
:105290005A01FB68134403F530631B68BA6812783F
:1052A0005101FA680A4402F5306243F00443136086
:1052B000002318461437BD465DF8047B704780B460
:1052C00087B000AFF860B96011461A460B46FB7113
:1052D0001346BB8000233B6100237B6197F820309D
:1052E000002B1AD1BB8803339B083B6100237B61F1
:1052F0000FE0FB791A03FB68134403F580531A4649
:10530000BB681B6813607B6901337B61BB68043336
:10531000BB607A693B699A42EBD3002318461C377D
:10532000BD465DF8047B704780B487B000AFF8607D
:10533000B9601346FB8000237B61FB8803339B0825
:105340003B6100237B610BE0FB6803F580531A6827
:10535000BB681A607B6901337B61BB680433BB6047
:105360007A693B699A42EFD3BB6818461C37BD4641
:105370005DF8047B704780B483B000AF786039601B
:105380003B685B78012B2ED13B681B785A017B6808
:10539000134403F510631B68002B11DB3B681B787B
:1053A0005A017B68134403F510631B683A6812784E
:1053B00051017A680A4402F5106223F080431360B9
:1053C0003B681B785A017B68134403F510631B6824
:1053D0003A68127851017A680A4402F5106243F47F
:1053E000001313602DE03B681B785A017B6813445F
:1053F00003F530631B68002B11DB3B681B785A01F7
:105400007B68134403F530631B683A6812785101D6
:105410007A680A4402F5306223F0804313603B68E7
:105420001B785A017B68134403F530631B683A68A4
:10543000127851017A680A4402F5306243F400138D
:105440001360002318460C37BD465DF8047B704797
:1054500080B483B000AF786039603B685B78012B23
:105460002CD13B681B785A017B68134403F5106309
:105470001B683A68127851017A680A4402F5106292
:1054800023F4001313603B68DB78032B03D03B68E5
:10549000DB78022B3ED13B681B785A017B681344B2
:1054A00003F510631B683A68127851017A680A4460
:1054B00002F5106243F0805313602BE03B681B78C9
:1054C0005A017B68134403F530631B683A6812780D
:1054D00051017A680A4402F5306223F40013136024
:1054E0003B68DB78032B03D03B68DB78022B11D1C0
:1054F0003B681B785A017B68134403F530631B68D3
:105500003A68127851017A680A4402F5306243F031
:1055100080531360002318460C37BD465DF8047BAA
:10552000704780B483B000AF78600B46FB707B6837
:1055300003F500631B687A6802F5006223F4FE63DA
:1055400013607B6803F500631A68FB781B0103F4A2
:10555000FE63796801F5006113430B600023184670
:105560000C37BD465DF8047B704780B582B000AF54
:1055700078607B6803F500635B687A6802F5006217
:1055800023F0020353600320FBF776F8002318464C
:105590000837BD4680BD80B582B000AF78607B68BB
:1055A00003F500635B687A6802F5006243F002036A
:1055B00053600320FBF760F8002318460837BD4608
:1055C00080BD80B485B000AF78600023FB607B684D
:1055D0005B69FB607B689B69FA681340FB60FB6852
:1055E00018461437BD465DF8047B704780B485B01B
:1055F00000AF78607B6803F500639B69FB607B68A4
:1056000003F50063DB69FA681340FB60FB681B0C61
:1056100018461437BD465DF8047B704780B485B0EA
:1056200000AF78607B6803F500639B69FB607B6873
:1056300003F50063DB69FA681340FB60FB689BB20B
:1056400018461437BD465DF8047B704780B485B0BA
:1056500000AF78600B46FB70FB785A017B681344FF
:1056600003F530639B68FB607B6803F500635B694F
:10567000FA681340FB60FB6818461437BD465DF8B6
:10568000047B704780B487B000AF78600B46FB7036
:105690007B6803F500631B697B617B6803F500632E
:1056A0005B6B3B61FB783A6922FA03F3DB01DBB207
:1056B0007A6913437B61FB785A017B68134403F5D5
:1056C00010639B687A691340FB60FB6818461C37BF
:1056D000BD465DF8047B704780B483B000AF78604E
:1056E0007B685B6903F0010318460C37BD465DF823
:1056F000047B704780B483B000AF78607B6803F5AB
:1057000010631B687A6802F5106223F4FF6323F0CC
:10571000070313607B6803F500639B6803F00603CF
:10572000042B09D17B6803F510631B687A6802F5C6
:10573000106243F0030313607B6803F500635B684A
:105740007A6802F5006243F48073536000231846C0
:105750000C37BD465DF8047B704780B485B000AF60
:10576000F8600B467A60FB72FB6803F530631A46FB
:1057700000231361FB6803F530631B69FA6802F5C7
:10578000306243F400231361FB6803F530631B6947
:10579000FA6802F5306243F018031361FB6803F501
:1057A00030631B69FA6802F5306243F0C04313614D
:1057B000FB7A012B0CD1FB6803F530631A467B683A
:1057C0005361FB6803F530631A464FF08023136082
:1057D000002318461437BD465DF8047B704700006F
:1057E00080B485B000AF78600023FB60FB680133B4
:1057F000FB60FB68134A934201D903231BE07B68DB
:105800001B69002BF2DA0023FB607B681B6943F005
:1058100001027B681A61FB680133FB60FB68094A7F
:10582000934201D9032306E07B681B6903F001035F
:10583000012BF0D0002318461437BD465DF8047BD9
:10584000704700BF400D030080B584B000AF7860A2
:105850000B46FB700023FB737B681B7C002B0ED177
:105860004FF4007302228121786803F0A7FE4FF401
:10587000007302220121786803F0A0FE0BE04023B0
:1058800002228121786803F099FE4023022201213F
:10589000786803F093FE082303228221786803F0DE
:1058A0008DFE4FF4077004F081F903461A467B68B9
:1058B000C3F818227B68D3F81832002B02D10123D9
:1058C000FB7326E07B68D3F81832BB607B68D3F8A3
:1058D0001C321B689847BB680022C3F81422BB68BF
:1058E0000022C3F818227B681B7C002B09D1BB68FF
:1058F000D3F804224FF400730121786803F0DAFF33
:1059000007E0BB68D3F8042240230121786803F044
:10591000D1FFFB7B18461037BD4680BD80B584B0F3
:1059200000AF78600B46FB700023FB738121786821
:1059300003F082FE0121786803F07EFE8221786800
:1059400003F07AFE7B68D3F81832002B0ED07B6808
:10595000D3F81C325B6898477B68D3F81832184636
:1059600004F02CF97B680022C3F81822FB7B184650
:105970001037BD4680BD000080B584B000AF7860B0
:1059800039607B68D3F81832FB603B681B7803F002
:105990006003002B39D0202B45D13B68DB88002BDE
:1059A00029D03B681B785BB2002B11DA7B68D3F8F7
:1059B0001C329B683A685078F9683A68D2889847F0
:1059C000F9683B68DB881A46786801F053F82BE0E9
:1059D0003B685A78FB6883F800223B68DB88DAB2C0
:1059E000FB6883F80122F9683B68DB881A4678680F
:1059F00001F06EF818E07B68D3F81C329B683A68B7
:105A000050780022396898470EE03B685B780A2B93
:105A100002D00B2B06D006E001220649786801F07F
:105A200029F800E000BF00BF002318461037BD462C
:105A300080BD00BF5C02002080B485B000AF7860FC
:105A40000B46FB707B68D3F81832FB607B68D3F899
:105A50001832002B05D0FB680022C3F81422002363
:105A600000E0022318461437BD465DF8047B7047FA
:105A700080B584B000AF78600B46FB707B68D3F8CC
:105A80001832FB60FB781946786803F04DFF024638
:105A9000FB68C3F80C227B68D3F81832002B0DD0BA
:105AA0007B68D3F81C32DB68FA68D2F80402FA6823
:105AB00002F5037211469847002300E002231846BE
:105AC0001037BD4680BD80B584B000AF78607B687C
:105AD000D3F81832FB607B68D3F81C32002B15D04A
